S01700004763634170706C69636174696F6E352E7372656357
S11300000C943A000C9457000C9457000C9457002D
S11300100C9457000C9457000C9457000C94570000
S11300200C9457000C9457000C9457000C945700F0
S11300300C9457000C9457000C9457000C945700E0
S11300400C9457000C9457000C9457000C945700D0
S11300500C94570018071E0724079C079C07720777
S11300609C077A079C079C079C0766079C079C07CC
S11300709C076D0711241FBECFE5D8E0DEBFCDBFBE
S113008010E0A0E6B0E0E4E6F0E202C005900D92D4
S1130090A23AB107D9F720E0A2EAB0E001C01D926C
S11300A0A63AB207E1F70E9462060C9430100C9451
S11300B00000FC010FB6F8946091A2007091A300B7
S11300C08091A4009091A5000FBE309721F0608329
S11300D0718382839383089523E023BF09C083E857
S11300E082BF88B7816088BF08B600FEFDCFC90112
S11300F09C0121503109892B91F713BE089523E007
S113010023BF09C08EEF82BF88B7816088BF08B65D
S113011000FEFDCFC9019C0121503109892B91F7C3
S113012013BE0895882321F088B3816088BB03C07F
S113013088B38E7F88BB88B3826088BB11BA80B3D2
S113014088B3846088BB00000000000011BA80B34B
S113015098B39B7F98BB0895662321F098B3916070
S113016098BB03C098B39E7F98BB98B39D7F98BB00
S113017082BB8FEF81BB88B3846088BB0000000022
S1130180000088B38B7F88BB0895CF93DF93C82F7B
S1130190D62F80E00E9492008823DCF36D2F8C2FF1
S11301A00E94AC00DF91CF91089587B3816087BB33
S11301B087B3826087BB87B3846087BB80E190E0AC
S11301C00E946C0060E080E30E94AC0085E090E057
S11301D00E946C0060E080E30E94AC0081E090E04B
S11301E00E946C0060E08CE30E94C50060E08CE03B
S11301F00E94C50060E086E00E94C50060E081E0E6
S11302000E94C500089560E081E00E94C500089541
S1130210CF93DF93C62F98E2899FC00D112460E02D
S113022082E00E94C50005C060E084E10E94C50030
S1130230CD2FDFEFDC0FC111F7CFDF91CF91089500
S113024061E00E94C5000895EF92FF920F931F93FF
S1130250CF93DF93FC017B01161617066CF016C0D2
S11302608F010F5F1F4F80818823A9F061E00E94F6
S1130270C5002196F80102C0C0E0D0E0CE15DF052C
S11302807CF309C061E00E94C500FE01EF012196E4
S113029080818111F7CFDF91CF911F910F91FF9052
S11302A0EF90089590EF94BB6C5F7F4F21E030E0B6
S11302B002C0220F331F6A95E2F7209525BB23B3B2
S11302C030E002C0359527958A95E2F781E090E009
S11302D020FF02C080E090E008950F931F93CF9316
S11302E0DF9300E010E018C0BE01C8010E94520173
S11302F0892B49F0CE01880F991F880F991F800F11
S1130300911F01960EC0219602C0C0E0D0E0C43017
S1130310D10554F30F5F1F4F04301105B4F380E08F
S113032090E0DF91CF911F910F9108954F925F92CA
S11303306F927F928F929F92AF92BF92CF92DF92F1
S1130340EF92FF920F931F93CF93DF936C01072ECD
S1130350000C880B990B0E94600B20E030E04AE708
S113036054E40E94B60A4B015C01C114D10491F417
S113037020E030E040E254E40E94EC0B25E83BEE40
S113038041E25FE30E94EC0B0E94280B7B010CE925
S113039010E029C0B6010D2C000C880B990B0E94AB
S11303A0600B2DEC3CEC4CEC5FE30E94EC0B2B015E
S11303B03C019B01AC01C501B4010E94EC0B25E892
S11303C03BEE41E25FE30E94EC0B0E94280B7B01B1
S11303D0A301920160E070E583EC97E40E94B60A01
S11303E00E94280B8B01812C912C54011EC0C11436
S11303F0D10421F488B3877F88BB03C088B38860A5
S113040088BBE80111230CF42196D595C795CE013C
S11304100E947F0088B3877F88BBCE010E947F0043
S11304208FEF881A980AA80AB80AC7010F2C000C83
S1130430AA0BBB0B88169906AA06BB06C4F2DF9169
S1130440CF911F910F91FF90EF90DF90CF90BF90CD
S1130450AF909F908F907F906F905F904F90089592
S11304608F929F92AF92BF92CF92DF92EF92FF92C0
S11304700F931F93CF93DF93EA01680179019B01E6
S1130480220F331FD901A60FB71FAA0FBB1FA80F36
S1130490B91F6D917C911197FD0182809380A48096
S11304A0B580072E000C880B990B0E94600BA701E6
S11304B096010E94EC0B0E94280B6B017C01BE018B
S11304C0DD0F880B990B0E94600B9B01AC0160E06F
S11304D070E080E792E40E94B60A20E030E04AE748
S11304E055E40E94EC0B9B01AC01C501B4010E94D0
S11304F0EC0B0E94280BC6010E949601DF91CF915C
S11305001F910F91FF90EF90DF90CF90BF90AF902D
S11305109F908F9008958F929F92AF92BF92CF92A7
S1130520DF92EF92FF920F931F93CF93DF93EA0131
S1130530680179019B01220F331FD901A60FB71F50
S1130540AA0FBB1FA80FB91F6D917C911197FD01D4
S113055082809380A480B580072E000C880B990BB1
S11305600E94600BA70196010E94EC0B0E94280BCD
S11305706B017C01BE01DD0F880B990B0E94600B9F
S11305809B01AC0160E070E080E792E40E94B60A4F
S113059020E030E04AE755E40E94EC0B9B01AC01FB
S11305A0C501B4010E94EC0B0E94280BC6010E94F5
S11305B09601DF91CF911F910F91FF90EF90DF9003
S11305C0CF90BF90AF909F908F9008958F929F92FD
S11305D0AF92BF92CF92DF92EF92FF920F931F934D
S11305E0CF93DF93EA01680179019B01220F331F46
S11305F0D901A60FB71FAA0FBB1FA80FB91F6D9172
S11306007C911197FD0182809380A480B580072E90
S1130610000C880B990B0E94600BA70196010E94A5
S1130620EC0B0E94280B6B017C01BE01DD0F880BD3
S1130630990B0E94600B9B01AC0160E070E080E7C5
S113064092E40E94B60A20E030E04AE755E40E94B2
S1130650EC0B9B01AC01C501B4010E94EC0B0E94A0
S1130660280BC6010E949601DF91CF911F910F9133
S1130670FF90EF90DF90CF90BF90AF909F908F90BE
S11306800895CF92DF92EF92FF920F931F93CF932F
S1130690DF93DC012BE032E011963C932E9340E093
S11306A050E060E07EE312964D935D936D937C93EE
S11306B0159717961C921E92169718964D935D9354
S11306C06D937C931B971D961C921E921C971E96ED
S11306D04D935D936D937C9351970F2EF8E8CF2E35
S11306E0DD24D394F02D5396DC92CE9252975496F7
S11306F04D935D936D937C93579759961C921E92DC
S113070058975A964D935D936D937C935D975F963E
S11307101C921E925E9790964D935D936D937C937D
S113072093978AE491E095969C938E9394979696EA
S11307304D935D936D937C9399979B961C921E9217
S11307409A979C964D935D936D937C939F97D196C6
S11307501C921E92D097D2964D935D936D937C9389
S1130760D597C8EBD1E0D796DC93CE93D697D8969D
S11307704D935D936D937C93DB97DD961C921E9253
S1130780DC97CD01CE96FC01408351836283738351
S11307908D010E5B1F4F8EEE91E0F80191838083F3
S11307A00E5F1F4FF80140835183628373830C5F94
S11307B01F4FF801118210820E5F1F4FF801408312
S11307C05183628373830C5F1F4F0F2EF2EDEF2E64
S11307D0FF24F394F02DF801F182E0820E5F1F4FA5
S11307E0F80140835183628373830C5F1F4FF801C8
S11307F0D183C083ED01CA5ADF4F488359836A838A
S11308007B832496198218822296488359836A83AB
S11308107B832496D982C8823E9640835183628327
S1130820738326960F2EF3E9CF2EF2E0DF2EF02D00
S1130830D982C8822296488359836A837B8324960B
S1130840198218822296488359836A837B83025EC5
S11308501F4FC0E1D3E0F801D183C0830E5F1F4F67
S1130860F80140835183628373830C5F1F4F0F2E03
S1130870F0E7EF2EF3E0FF2EF02DF801F182E08295
S11308800E5F1F4FF80140835183628373830C5FB3
S11308901F4FF801118210820E5F1F4FF801408331
S11308A05183628373830C5F1F4F0F2EFAEBEF2E7D
S11308B0F2E0FF2EF02DF801F182E0820E5F1F4F6F
S11308C0F80140835183628373830C5F1F4FF801E7
S11308D0D183C083ED01C457DF4F488359836A83B2
S11308E07B832496198218822296488359836A83CB
S11308F07B832496D982C8823E9640835183628347
S113090073833496118210823296408351836283BA
S11309107383349631832083329640835183628378
S1130920738334962BE432E0318320833296408300
S11309305183628373833496918380833296408398
S1130940518362837383349611821082329640837A
S1130950518362837383349611821082329640836A
S1130960518362837383349680E290E09183808321
S1130970329684EB90E091838083AC53BF4F86E042
S1130980E4E6F0E001900D928A95E1F7DF91CF91D2
S11309901F910F91FF90EF90DF90CF900895DC01AD
S11309A08EEE91E011969C938E9340E050E060E0CF
S11309B07EE312964D935D936D937C9315978AEB2A
S11309C092E017969C938E93169718964D935D9389
S11309D06D937C931B971D961C921E921C971E96DA
S11309E04D935D936D937C93519753969C938E9303
S11309F0529754964D935D936D937C935797599664
S1130A009C938E9358975A964D935D936D937C93D4
S1130A105D9783E992E05F969C938E935E979096A0
S1130A204D935D936D937C93939795961C921E9230
S1130A30949796964D935D936D937C9399978BE4DD
S1130A4092E09B969C938E939A979C964D935D937C
S1130A506D937C939F978BE092E0D1969C938E93B9
S1130A60D097D2964D935D936D937C93D5978AE4FA
S1130A7091E0D7969C938E93D697D8964D935D9399
S1130A806D937C93DB97DD961C921E92DC97FD019F
S1130A90FE9640835183628373833496918380836B
S1130AA032964083518362837383349686E091E067
S1130AB09183808332964083518362837383349617
S1130AC011821082329640835183628373833496F9
S1130AD011821082329640835183628373833496E9
S1130AE011821082329640835183628373833496D9
S1130AF080E190E091838083329684EB90E091834F
S1130B008083AC59BF4F87E0EAE6F0E001900D9294
S1130B108A95E1F70895DC018BE092E011969C93AD
S1130B208E9340E050E060E07EE312964D935D9337
S1130B306D937C93159717961C921E921697189690
S1130B404D935D936D937C931B971D961C921E92FF
S1130B501C971E964D935D936D937C93519753967A
S1130B609C938E93529754964D935D936D937C937F
S1130B70579759961C921E9258975A964D935D9387
S1130B806D937C935D975F961C921E925E979096F0
S1130B904D935D936D937C93939795969C938E93CD
S1130BA0949796964D935D936D937C9399979B96AA
S1130BB01C921E929A979C964D935D936D937C9391
S1130BC09F9788E891E0D1969C938E93D097D29684
S1130BD04D935D936D937C93D597D7961C921E92FB
S1130BE0D697D8964D935D936D937C93DB97DD9662
S1130BF01C921E92DC97FD01FE9640835183628312
S1130C0073833496918380833296408351836283C5
S1130C1073833496118210823296408351836283A7
S1130C207383349611821082329640835183628397
S1130C307383349691838083329640835183628395
S1130C407383349611821082329640835183628377
S1130C507383349680E190E091838083329684EBB1
S1130C6090E091838083AC59BF4F86E0E1E7F0E0E8
S1130C7001900D928A95E1F708950F931F93CF93F6
S1130C80DF938C01EB010E94D30CBE01601B710B3E
S1130C906F5F7F4F0E94590C800F911FDF91CF919E
S1130CA01F910F910895AC0120E030E007C0FA01D4
S1130CB0E20FF31F90E290832F5F3F4F2617370711
S1130CC0B4F30895CF93DF93CDB7DEB7C35ED140BD
S1130CD00FB6F894DEBF0FBECDBF80E090E00E9457
S1130CE05900CB010E94D80C0E94D500CE01019678
S1130CF00E944103CE018A529F4F0E94CF04CE012D
S1130D00855B9E4F0E948B0587B3886087BB81E11A
S1130D10E0E9F0E0DE01A054BE4F01900D928A9507
S1130D20E1F70E94030160E080E00E94080167E0AF
S1130D3070E087E790E00E94240184E690E00E943E
S1130D406C002FE4C952DE4F2883C75DD140212CAB
S1130D50312C86E090E0C252DE4F99838883CE5DC9
S1130D60D140C452DE4F19821882CC5DD14021E0BB
S1130D7030E0CE51DE4F39832883C25ED140C05269
S1130D80DE4F19821882C05ED140612C712C412C37
S1130D90512CC852DE4F19821882C85DD140C65208
S1130DA0DE4F19821882CA5DD1400F2EFAE0CF2E91
S1130DB0D12CF02D00E010E00F2EF5E0EF2EF12CF9
S1130DC0F02D812C912C18C06894EE24E2F8F12CBB
S1130DD0812C912C10C0812C912C0DC00F2EF3E08E
S1130DE0EF2EF12CF02D812C912C05C0812C912C0F
S1130DF002C0812C912C85011C141D042CF431E0BB
S1130E00C31AD108580103C00E946D015C01012B73
S1130E1009F092C0A114B10409F48EC0F501319710
S1130E20E031F10508F088C0E65DFF4F0C946D0CCD
S1130E3084E0E816F10409F064C07EC092E0E9168B
S1130E40F10409F079C064C021E0E216F10409F468
S1130E5063C034E0E316F10409F06EC00E9403019C
S1130E6060E170E0CE0180549E4F0E945306212C15
S1130E70312C86E090E0C252DE4F99838883CE5DA8
S1130E80D140C452DE4F19821882CC5DD14021E09A
S1130E9030E0CE51DE4F39832883C25ED140C05248
S1130EA0DE4F19821882C05ED140612C712C412C16
S1130EB0512CC852DE4F19821882C85DD140689403
S1130EC0EE24E1F8F12C812C912C36C03FE3C95279
S1130ED0DE4F3883C75DD1402FC084E0E816F104AB
S1130EE059F51FC092E0E916F10431F5411451049B
S1130EF0F9F022C02FE4C952DE4F2883C75DD140E8
S1130F001BC06894EE24E2F8F12C812C912C14C0BF
S1130F10EE24E394F12C10C06894EE24E1F8F12C53
S1130F200BC0C652DE4F19821882CA5DD14004C07C
S1130F306894442442F8512C33E0E316F10409F494
S1130F40D6C25CF491E0E916F10409F4F2C222E09D
S1130F50E216F10409F484C04ECF34E0E316F10440
S1130F60B1F085E0E816F10409F045CF0E940301D1
S1130F7060E080E00E94080165E070E08FE790E0A7
S1130F800E9424011C141D040CF435CF1DCF0E94B3
S1130F90030160E080E00E94080165E070E081E701
S1130FA090E00E942401C552DE4F9881CB5DD14070
S1130FB09F93C652DE4F2881CA5DD1402F9385E8A6
S1130FC090E09F938F938E010F521E4F1F930F93A8
S1130FD00E94E30C6BE080E00E94080165E070E091
S1130FE0C8010E94240160E081E00E940801C95206
S1130FF0DE4F8881C75DD1400E94200164E081E01A
S11310000E94080183E20E94200166E081E00E94C0
S113101008018FE60E942001C355DE4F48815981A3
S1131020CD5AD14000E010E020E83FE3B401CE0106
S1131030855B9E4F0E94E6023FEF831A930AC555D3
S1131040DE4F88819981CB5AD1400F900F900F9039
S11310500F900F900F908816990609F0CCCEBBCE56
S1131060C852DE4F88819981C85DD1400196C8522B
S1131070DE4F99838883C85DD140C952DE4F988181
S1131080C75DD1409F3341F0CE51DE4F2881398175
S1131090C25ED140620E731EC852DE4F88819981B0
S11310A0C85DD14062E370E00E94590C009789F456
S11310B0CE51DE4F28813981C25ED1402A303105BC
S11310C044F42F5F3F4FCE51DE4F39832883C25EF5
S11310D0D140892BC1F4C252DE4F88819981CE5D03
S11310E0D140181619067CF40197C252DE4F998339
S11310F08883CE5DD140019731F4C252DE4F19820C
S11311001882CE5DD1401214130454F491E0291ACC
S1131110310831F42FE4C952DE4F2883C75DD14032
S1131120141415041CF431E0431A51081414150462
S1131130A4F460E080E00E940801C952DE4F888177
S1131140C75DD1400E94200180E2C054DE4F8883F5
S1131150C05CD14080E090E06CC060E080E00E9420
S1131160080180E20E942001C952DE4F8881C75DD8
S1131170D140C054DE4F8883C05CD140EBCF009790
S113118009F046C0C054DE4F2881C05CD140C9522A
S1131190DE4F3881C75DD14032132FC02F3471F434
S11311A0CF53DE4F3881C15CD140333239F428E566
S11311B0C054DE4F2883C05CD1403AC02F3391F035
S11311C0CF53DE4F2881C15CD1402F3659F42EE332
S11311D0C952DE4F2883C75DD1400F2EF4E12F2E74
S11311E0312CF02DC952DE4F3881C75DD140C05437
S11311F0DE4F3883C05CD1401BC0CF53DE4F288103
S1131200C15CD140C054DE4F2883C05CD14010C0C3
S1131210FC01319620EC31E02C0F3D1FE20FF31F4F
S11312202081E0ECF1E0EC0FFD1FE80FF91F2083B3
S113123001968F3091050CF4A2CFC052DE4F888105
S11312409981C05ED14003970CF078C0C452DE4F40
S113125028813981CC5DD140C252DE4F8881998189
S1131260CE5DD140281739070CF468C06AE070E0FD
S113127081E090E00E943D068C016CE370E081E027
S113128090E00E943D060297DCF4C452DE4F2881B0
S11312903981CC5DD1402F5F3F4FC452DE4F39833B
S11312A02883CC5DD1408FE6C153DE4F8883CF5C69
S11312B0D140C052DE4F19821882C05ED14058C05E
S11312C0CE51DE4F88819981C25ED140801791074B
S11312D0DCF0C052DE4F28813981C05ED1402F5FDF
S11312E03F4FC052DE4F39832883C05ED14083E232
S11312F0C153DE4F8883CF5CD140C452DE4F198284
S11313001882CC5DD14034C0C452DE4F88819981AB
S1131310CC5DD1400196C452DE4F99838883CC5D65
S1131320D14080E2C153DE4F8883CF5CD140C052AC
S1131330DE4F19821882C05ED1401AC0C452DE4FFB
S113134028813981CC5DD1402F5F3F4FC452DE4F9D
S113135039832883CC5DD14080E2C153DE4F88833A
S1131360CF5CD140C052DE4F19821882C05ED1409A
S1131370C952DE4F3881C75DD1403E33E9F43F9214
S11313802F9289E890E09F938F938E010F521E4F06
S11313901F930F930E94E30C62E080E00E94080117
S11313A062E070E0C8010E9424010F900F900F903A
S11313B00F900F900F900AC062E080E00E94080135
S11313C062E070E08EE990E00E9424017F926F92C7
S11313D085E890E09F938F938E010F521E4F1F93C9
S11313E00F930E94E30C6BE080E00E94080165E02B
S11313F070E0C8010E94240160E081E00E940801BD
S113140060E170E0CE0180549E4F0E942401C054DC
S1131410DE4F8881C05CD1400F900F900F900F90E9
S11314200F900F90883509F045C0C552DE4F888172
S1131430CB5DD1408F93C652DE4F9881CA5DD140B7
S11314409F9385E890E09F938F931F930F930E943F
S1131450E30C62E080E00E94080165E070E0C801EE
S11314600E9424010F900F900F900F900F900F90F7
S1131470C652DE4F28813981CA5DD1402615370511
S11314800CF0ACCC68E080E00E94080162E070E0FF
S11314908DE890E00E942401C652DE4F7982688272
S11314A0CA5DD1400F2EF3E0EF2EF12CF02D812CEC
S11314B0912CA1CCCD53DF4F48815981C35CD040DE
S11314C000E010E020E83FE3B401CE0101960E9461
S11314D030023FEF831A930ACF53DF4F88819981FB
S11314E0C15CD0408816990609F085CC7FCCCA5CD3
S11314F0DE4F88819981C653D14088169906A4F499
S1131500C85CDE4F48815981C853D14000E010E0E7
S113151020E83FE3B401CE018A529F4F0E948B0220
S11315208FEF881A980A67CC84E690E00E946C00DA
S113153062CCCD53DF4F48815981C35CD04000E079
S113154010E020E83FE3B401CE0101960E9430028E
S11315509FEF891A990ACF53DF4F88819981C15C23
S1131560D0408816990609F046CC43CC0E94CA0A9A
S11315700C94B20B0E94AB0B58F00E94A40B40F0E9
S113158029F45F3F29F00C949B0B51110C94E60B4A
S11315900C94A10B0E94C30B68F39923B1F3552358
S11315A091F3951B550BBB27AA2762177307840772
S11315B038F09F5F5F4F220F331F441FAA1FA9F308
S11315C035D00E2E3AF0E0E832D091505040E695F6
S11315D0001CCAF72BD0FE2F29D0660F771F881F57
S11315E0BB1F261737074807AB07B0E809F0BB0B4A
S11315F0802DBF01FF2793585F4F3AF09E3F51055E
S113160078F00C949B0B0C94E60B5F3FE4F3983E4C
S1131610D4F3869577956795B795F7959F5FC9F746
S1131620880F911D9695879597F90895E1E0660FC7
S1131630771F881FBB1F621773078407BA0720F040
S1131640621B730B840BBA0BEE1F88F7E0950895A9
S11316500E942F0B6894B1110C94E60B08950E941C
S1131660CB0B88F09F5798F0B92F9927B751B0F05A
S1131670E1F0660F771F881F991F1AF0BA95C9F712
S113168014C0B13091F00E94E50BB1E008950C94C0
S1131690E50B672F782F8827B85F39F0B93FCCF373
S11316A0869577956795B395D9F73EF4909580958F
S11316B0709561957F4F8F4F9F4F0895E89409C0AF
S11316C097FB3EF490958095709561957F4F8F4F71
S11316D09F4F9923A9F0F92F96E9BB279395F69587
S11316E0879577956795B795F111F8CFFAF4BB0F05
S11316F011F460FF1BC06F5F7F4F8F4F9F4F16C069
S1131700882311F096E911C0772321F09EE8872FF2
S1131710762F05C0662371F096E8862F70E060E0AE
S11317202AF09A95660F771F881FDAF7880F969527
S1131730879597F9089597F99F6780E870E060E0CE
S113174008959FEF80EC089500240A941616170656
S113175018060906089500240A941216130614069E
S113176005060895092E0394000C11F4882352F001
S1131770BB0F40F4BF2B11F460FF04C06F5F7F4FB9
S11317808F4F9F4F089557FD9058440F551F59F0A0
S11317905F3F71F04795880F97FB991F61F09F3F5A
S11317A079F087950895121613061406551FF2CF83
S11317B04695F1DF08C0161617061806991FF1CFD3
S11317C086957105610508940895E894BB276627FA
S11317D07727CB0197F908950E94FF0B0C94B20B65
S11317E00E94A40B38F00E94AB0B20F0952311F05B
S11317F00C949B0B0C94A10B11240C94E60B0E94EB
S1131800C30B70F3959FC1F3950F50E0551F629F72
S1131810F001729FBB27F00DB11D639FAA27F00D45
S1131820B11DAA1F649F6627B00DA11D661F829F6C
S11318302227B00DA11D621F739FB00DA11D621F51
S1131840839FA00D611D221F749F3327A00D611D6E
S1131850231F849F600D211D822F762F6A2F112450
S11318609F5750409AF0F1F088234AF0EE0FFF1F83
S1131870BB1F661F771F881F91505040A9F79E3FDA
S1131880510580F00C949B0B0C94E60B5F3FE4F342
S1131890983ED4F3869577956795B795F795E79530
S11318A09F5FC1F7FE2B880F911D9695879597F939
S11318B0089597FB072E16F4009407D077FD09D0FE
S11318C00E94730C07FC05D03EF4909581959F4FC0
S11318D00895709561957F4F0895EE0FFF1F059051
S11318E0F491E02D0994AA1BBB1B51E107C0AA1F68
S11318F0BB1FA617B70710F0A61BB70B881F991FAD
S11319005A95A9F780959095BC01CD0108958F92C1
S11319109F92AF92BF92CF92DF92EF92FF92CF93BA
S1131920DF93EC01688179818A819B81611571055E
S11319308105910521F464E279ED8BE597E02DE1D1
S113194033EF41E050E00E94960F49015A019B0198
S1131950AC01A7EAB1E40E94B50F6B017C01ACEEC7
S1131960B4EFA50194010E94C30FDC01CB018C0DDF
S11319709D1DAE1DBF1DB7FF03C00197A109B0484F
S113198088839983AA83BB839F77DF91CF91FF904C
S1131990EF90DF90CF90BF90AF909F908F9008957D
S11319A00E94870C089580E690E00E94870C0895B9
S11319B0A0E0B0E08093600090936100A093620087
S11319C0B09363000895AEE0B0E0E9EEFCE00C945F
S11319D0D60F0D891E8986E08C831A8309838FEFC5
S11319E09FE79E838D83AE01475E5F4F6F89788D3D
S11319F0CE0101960E94050DEF81F885E00FF11FDD
S1131A0010822E96E4E00C94F20FABE0B0E0EBE031
S1131A10FDE00C94C80F6C017B018A01FC01178264
S1131A201682838181FFCCC1CE0101963C01F6016F
S1131A309381F70193FD859193FF81917F01882321
S1131A4009F4BAC1853239F493FD859193FF8191EC
S1131A507F01853229F4B60190E00E94FC0EE7CFA5
S1131A60912C212C312CFFE1F315D8F08B3279F035
S1131A7038F4803279F08332A1F4232D20611DC023
S1131A808D3261F0803369F4232D216016C0832DDB
S1131A908260382EE32DE4603E2E2AC0F32DF860D8
S1131AA01DC037FC2DC020ED280F2A3040F08E32A7
S1131AB0B9F436FC81C1232D2064322E19C036FEC0
S1131AC006C08AE0989E200D1124922E11C0EAE0EF
S1131AD02E9E200D1124222EF32DF0623F2E08C0DD
S1131AE08C3621F4832D8068382E02C0883641F468
S1131AF0F70193FD859193FF81917F018111B3CF0C
S1131B00982F9F7D9554933028F40C5F1F4F9FE3CB
S1131B1099830DC0833631F0833771F0833509F032
S1131B2059C021C0F801808189830E5F1F4F88242A
S1131B308394912C530113C02801F2E04F0E511CE1
S1131B40F801A080B18036FE03C0692D70E002C0A8
S1131B506FEF7FEFC5010E94F10E4C018201F32D5E
S1131B60FF773F2E16C0280122E0420E511CF801D7
S1131B70A080B18036FE03C0692D70E002C06FEF13
S1131B807FEFC5010E94E60E4C01F32DF0683F2E55
S1131B90820133FC1BC0822D90E088169906B0F4B4
S1131BA0B60180E290E00E94FC0E2A94F4CFF50185
S1131BB037FC859137FE81915F01B60190E00E9468
S1131BC0FC0E21102A9421E0821A910881149104B8
S1131BD071F7E8C0843611F0893641F5F80137FE13
S1131BE007C060817181828193810C5F1F4F08C09F
S1131BF060817181072E000C880B990B0E5F1F4FBB
S1131C00F32DFF763F2E97FF09C090958095709530
S1131C1061957F4F8F4F9F4FF0683F2E2AE030E051
S1131C20A3010E94380F882E861845C0853731F4E9
S1131C30232D2F7EB22E2AE030E025C0932D997FEC
S1131C40B92E8F36C1F018F4883579F0B5C08037D5
S1131C5019F0883721F0B0C0E92FE061BE2EB4FE40
S1131C600DC0FB2DF460BF2E09C034FE0AC0292F1D
S1131C702660B22E06C028E030E005C020E130E046
S1131C8002C020E132E0F801B7FE07C06081718133
S1131C90828193810C5F1F4F06C06081718180E057
S1131CA090E00E5F1F4FA3010E94380F882E861804
S1131CB0FB2DFF773F2E36FE0DC0232D2E7FA22E47
S1131CC0891458F434FE0BC032FC09C0832D8E7E77
S1131CD0A82E05C0B82CA32C03C0B82C01C0B92C65
S1131CE0A4FE0FC0FE01E80DF11D8081803321F4B4
S1131CF09A2D997EA92E09C0A2FE06C0B394B3946E
S1131D0004C08A2D867809F0B394A3FC11C0A0FE08
S1131D1006C0B21488F4280C922C9B180EC0B2147E
S1131D2060F4B60180E290E00E94FC0EB394F7CF19
S1131D30B21418F42B1802C0982C212CA4FE10C045
S1131D40B60180E390E00E94FC0EA2FE17C0A1FC45
S1131D5003C088E790E002C088E590E0B6010CC0BB
S1131D608A2D867859F0A1FE02C08BE201C080E280
S1131D70A7FC8DE2B60190E00E94FC0E891438F4B1
S1131D80B60180E390E00E94FC0E9A94F7CF8A9407
S1131D90F301E80DF11D8081B60190E00E94FC0E74
S1131DA08110F5CF222009F442CEB60180E290E002
S1131DB00E94FC0E2A94F6CFF6018681978102C018
S1131DC08FEF9FEF2B96E2E10C94E40FFC0105905A
S1131DD0615070400110D8F7809590958E0F9F1F29
S1131DE00895FC016150704001900110D8F780956E
S1131DF090958E0F9F1F08950F931F93CF93DF939A
S1131E00FB01238121FD03C08FEF9FEF2CC022FF34
S1131E1016C046815781248135814217530744F403
S1131E20A081B1819D012F5F3F4F318320838C932B
S1131E30268137812F5F3F4F3783268314C08B0160
S1131E40EC01FB010084F185E02D0995892BE1F675
S1131E50D80116968D919C911797019617969C938D
S1131E608E931697CE01DF91CF911F910F91089514
S1131E70FA01AA27283051F1203181F1E8946F93B7
S1131E806E7F6E5F7F4F8F4F9F4FAF4FB1E03ED05D
S1131E90B4E03CD0670F781F891F9A1FA11D680FFB
S1131EA0791F8A1F911DA11D6A0F711D811D911D2E
S1131EB0A11D20D009F468943F912AE0269F1124A3
S1131EC03019305D3193DEF6CF010895462F477007
S1131ED0405D4193B3E00FD0C9F7F6CF462F4F7062
S1131EE0405D4A3318F0495D31FD4052419302D0C0
S1131EF0A9F7EACFB4E0A695979587957795679566
S1131F00BA95C9F700976105710508959B01AC0165
S1131F100A2E06945795479537952795BA95C9F78C
S1131F20620F731F841F951FA01D0895052E97FB34
S1131F301EF400940E94AD0F57FD07D00E94FF0FBE
S1131F4007FC03D04EF40C94AD0F5095409530959A
S1131F5021953F4F4F4F5F4F089590958095709511
S1131F6061957F4F8F4F9F4F08950E942110A59F29
S1131F70900DB49F900DA49F800D911D1124089580
S1131F80B7FF0C94B50F0E94B50F821B930B0895F5
S1131F902F923F924F925F926F927F928F929F9275
S1131FA0AF92BF92CF92DF92EF92FF920F931F9363
S1131FB0CF93DF93CDB7DEB7CA1BDB0B0FB6F89414
S1131FC0DEBF0FBECDBF09942A88398848885F8454
S1131FD06E847D848C849B84AA84B984C884DF80C5
S1131FE0EE80FD800C811B81AA81B981CE0FD11DA9
S1131FF00FB6F894DEBF0FBECDBFED010895A1E288
S11320001A2EAA1BBB1BFD010DC0AA1FBB1FEE1F6E
S1132010FF1FA217B307E407F50720F0A21BB30BB9
S1132020E40BF50B661F771F881F991F1A9469F735
S113203060957095809590959B01AC01BD01CF0191
S11320400895A29FB001B39FC001A39F700D811D8D
S11320501124911DB29F700D811D1124911D0895AD
S1072060F894FFCF1E
S1132064010000004D4152494F0044454645415446
S1132074005245414459005354414E44425900537B
S11320844554555000253564002532640048490000
S11320942020202020202020202020202020202038
S10520A4000036
S9030000FC
